{
    "_format": "hh-sol-artifact-1",
    "contractName": "MultiSigWallet",
    "sourceName": "contracts/MultisigWallet.sol",
    "abi": [
        {
            "inputs": [
                {
                    "internalType": "address[]",
                    "name": "_signers",
                    "type": "address[]"
                },
                {
                    "internalType": "uint256",
                    "name": "_requiredSignatures",
                    "type": "uint256"
                }
            ],
            "stateMutability": "nonpayable",
            "type": "constructor"
        },
        {
            "anonymous": false,
            "inputs": [
                {
                    "indexed": true,
                    "internalType": "address",
                    "name": "sender",
                    "type": "address"
                },
                {
                    "indexed": false,
                    "internalType": "uint256",
                    "name": "amount",
                    "type": "uint256"
                }
            ],
            "name": "Deposit",
            "type": "event"
        },
        {
            "anonymous": false,
            "inputs": [
                {
                    "indexed": true,
                    "internalType": "uint256",
                    "name": "txId",
                    "type": "uint256"
                },
                {
                    "indexed": true,
                    "internalType": "address",
                    "name": "to",
                    "type": "address"
                },
                {
                    "indexed": false,
                    "internalType": "uint256",
                    "name": "value",
                    "type": "uint256"
                },
                {
                    "indexed": false,
                    "internalType": "bytes",
                    "name": "data",
                    "type": "bytes"
                }
            ],
            "name": "TransactionCreated",
            "type": "event"
        },
        {
            "anonymous": false,
            "inputs": [
                {
                    "indexed": true,
                    "internalType": "uint256",
                    "name": "txId",
                    "type": "uint256"
                },
                {
                    "indexed": true,
                    "internalType": "address",
                    "name": "executor",
                    "type": "address"
                }
            ],
            "name": "TransactionExecuted",
            "type": "event"
        },
        {
            "anonymous": false,
            "inputs": [
                {
                    "indexed": true,
                    "internalType": "uint256",
                    "name": "txId",
                    "type": "uint256"
                },
                {
                    "indexed": true,
                    "internalType": "address",
                    "name": "signer",
                    "type": "address"
                }
            ],
            "name": "TransactionSigned",
            "type": "event"
        },
        {
            "inputs": [
                {
                    "internalType": "address",
                    "name": "_to",
                    "type": "address"
                },
                {
                    "internalType": "uint256",
                    "name": "_value",
                    "type": "uint256"
                },
                {
                    "internalType": "bytes",
                    "name": "_data",
                    "type": "bytes"
                }
            ],
            "name": "createTransaction",
            "outputs": [],
            "stateMutability": "nonpayable",
            "type": "function"
        },
        {
            "inputs": [
                {
                    "internalType": "uint256",
                    "name": "",
                    "type": "uint256"
                },
                {
                    "internalType": "address",
                    "name": "",
                    "type": "address"
                }
            ],
            "name": "isSigned",
            "outputs": [
                {
                    "internalType": "bool",
                    "name": "",
                    "type": "bool"
                }
            ],
            "stateMutability": "view",
            "type": "function"
        },
        {
            "inputs": [
                {
                    "internalType": "address",
                    "name": "",
                    "type": "address"
                }
            ],
            "name": "isSigner",
            "outputs": [
                {
                    "internalType": "bool",
                    "name": "",
                    "type": "bool"
                }
            ],
            "stateMutability": "view",
            "type": "function"
        },
        {
            "inputs": [],
            "name": "requiredSignatures",
            "outputs": [
                {
                    "internalType": "uint256",
                    "name": "",
                    "type": "uint256"
                }
            ],
            "stateMutability": "view",
            "type": "function"
        },
        {
            "inputs": [
                {
                    "internalType": "uint256",
                    "name": "_txId",
                    "type": "uint256"
                }
            ],
            "name": "signTransaction",
            "outputs": [],
            "stateMutability": "nonpayable",
            "type": "function"
        },
        {
            "inputs": [
                {
                    "internalType": "uint256",
                    "name": "",
                    "type": "uint256"
                }
            ],
            "name": "signers",
            "outputs": [
                {
                    "internalType": "address",
                    "name": "",
                    "type": "address"
                }
            ],
            "stateMutability": "view",
            "type": "function"
        },
        {
            "inputs": [
                {
                    "internalType": "uint256",
                    "name": "",
                    "type": "uint256"
                }
            ],
            "name": "transactions",
            "outputs": [
                {
                    "internalType": "address",
                    "name": "to",
                    "type": "address"
                },
                {
                    "internalType": "uint256",
                    "name": "value",
                    "type": "uint256"
                },
                {
                    "internalType": "bytes",
                    "name": "data",
                    "type": "bytes"
                },
                {
                    "internalType": "bool",
                    "name": "executed",
                    "type": "bool"
                },
                {
                    "internalType": "uint256",
                    "name": "numSignatures",
                    "type": "uint256"
                }
            ],
            "stateMutability": "view",
            "type": "function"
        },
        {
            "stateMutability": "payable",
            "type": "receive"
        }
    ],
    "bytecode": "0x60806040523480156200001157600080fd5b5060405162001e3538038062001e35833981810160405281019062000037919062000505565b60008251116200007e576040517f08c379a00000000000000000000000000000000000000000000000000000000081526004016200007590620005cc565b60405180910390fd5b60008111801562000090575081518111155b620000d2576040517f08c379a0000000000000000000000000000000000000000000000000000000008152600401620000c99062000664565b60405180910390fd5b60005b8251811015620002cc576000838281518110620000f757620000f662000686565b5b60200260200101519050600073ffffffffffffffffffffffffffffffffffffffff168173ffffffffffffffffffffffffffffffffffffffff160362000173576040517f08c379a00000000000000000000000000000000000000000000000000000000081526004016200016a9062000705565b60405180910390fd5b600160008273ffffffffffffffffffffffffffffffffffffffff1673ffffffffffffffffffffffffffffffffffffffff16815260200190815260200160002060009054906101000a900460ff161562000203576040517f08c379a0000000000000000000000000000000000000000000000000000000008152600401620001fa9062000777565b60405180910390fd5b60018060008373ffffffffffffffffffffffffffffffffffffffff1673ffffffffffffffffffffffffffffffffffffffff16815260200190815260200160002060006101000a81548160ff0219169083151502179055506000819080600181540180825580915050600190039060005260206000200160009091909190916101000a81548173ffffffffffffffffffffffffffffffffffffffff021916908373ffffffffffffffffffffffffffffffffffffffff160217905550508080600101915050620000d5565b5080600481905550505062000799565b6000604051905090565b600080fd5b600080fd5b600080fd5b6000601f19601f8301169050919050565b7f4e487b7100000000000000000000000000000000000000000000000000000000600052604160045260246000fd5b6200034082620002f5565b810181811067ffffffffffffffff8211171562000362576200036162000306565b5b80604052505050565b600062000377620002dc565b905062000385828262000335565b919050565b600067ffffffffffffffff821115620003a857620003a762000306565b5b602082029050602081019050919050565b600080fd5b600073ffffffffffffffffffffffffffffffffffffffff82169050919050565b6000620003eb82620003be565b9050919050565b620003fd81620003de565b81146200040957600080fd5b50565b6000815190506200041d81620003f2565b92915050565b60006200043a62000434846200038a565b6200036b565b9050808382526020820190506020840283018581111562000460576200045f620003b9565b5b835b818110156200048d57806200047888826200040c565b84526020840193505060208101905062000462565b5050509392505050565b600082601f830112620004af57620004ae620002f0565b5b8151620004c184826020860162000423565b91505092915050565b6000819050919050565b620004df81620004ca565b8114620004eb57600080fd5b50565b600081519050620004ff81620004d4565b92915050565b600080604083850312156200051f576200051e620002e6565b5b600083015167ffffffffffffffff81111562000540576200053f620002eb565b5b6200054e8582860162000497565b92505060206200056185828601620004ee565b9150509250929050565b600082825260208201905092915050565b7f5369676e65727320726571756972656400000000000000000000000000000000600082015250565b6000620005b46010836200056b565b9150620005c1826200057c565b602082019050919050565b60006020820190508181036000830152620005e781620005a5565b9050919050565b7f496e76616c6964206e756d626572206f66207265717569726564207369676e6160008201527f7475726573000000000000000000000000000000000000000000000000000000602082015250565b60006200064c6025836200056b565b91506200065982620005ee565b604082019050919050565b600060208201905081810360008301526200067f816200063d565b9050919050565b7f4e487b7100000000000000000000000000000000000000000000000000000000600052603260045260246000fd5b7f496e76616c6964207369676e6572000000000000000000000000000000000000600082015250565b6000620006ed600e836200056b565b9150620006fa82620006b5565b602082019050919050565b600060208201905081810360008301526200072081620006de565b9050919050565b7f5369676e6572206e6f7420756e69717565000000000000000000000000000000600082015250565b60006200075f6011836200056b565b91506200076c8262000727565b602082019050919050565b60006020820190508181036000830152620007928162000750565b9050919050565b61168c80620007a96000396000f3fe6080604052600436106100745760003560e01c80637df73e271161004e5780637df73e27146101715780638d068043146101ae5780639ace38c2146101d9578063a9496e751461021a576100c9565b80632079fb9a146100ce5780633e6d21fa1461010b5780635d9ec21014610148576100c9565b366100c9573373ffffffffffffffffffffffffffffffffffffffff167fe1fffcc4923d04b559f4d29a8bfc6cda04eb5b0d3c460751c2402c5c5cc9109c346040516100bf9190610b37565b60405180910390a2005b600080fd5b3480156100da57600080fd5b506100f560048036038101906100f09190610b92565b610243565b6040516101029190610c00565b60405180910390f35b34801561011757600080fd5b50610132600480360381019061012d9190610c47565b610282565b60405161013f9190610ca2565b60405180910390f35b34801561015457600080fd5b5061016f600480360381019061016a9190610b92565b6102b1565b005b34801561017d57600080fd5b5061019860048036038101906101939190610cbd565b6105a5565b6040516101a59190610ca2565b60405180910390f35b3480156101ba57600080fd5b506101c36105c5565b6040516101d09190610b37565b60405180910390f35b3480156101e557600080fd5b5061020060048036038101906101fb9190610b92565b6105cb565b604051610211959493929190610d7a565b60405180910390f35b34801561022657600080fd5b50610241600480360381019061023c9190610f09565b6106c6565b005b6000818154811061025357600080fd5b906000526020600020016000915054906101000a900473ffffffffffffffffffffffffffffffffffffffff1681565b60026020528160005260406000206020528060005260406000206000915091509054906101000a900460ff1681565b600160003373ffffffffffffffffffffffffffffffffffffffff1673ffffffffffffffffffffffffffffffffffffffff16815260200190815260200160002060009054906101000a900460ff1661033d576040517f08c379a000000000000000000000000000000000000000000000000000000000815260040161033490610fd5565b60405180910390fd5b806003805490508110610385576040517f08c379a000000000000000000000000000000000000000000000000000000000815260040161037c90611041565b60405180910390fd5b816002600082815260200190815260200160002060003373ffffffffffffffffffffffffffffffffffffffff1673ffffffffffffffffffffffffffffffffffffffff16815260200190815260200160002060009054906101000a900460ff1615610424576040517f08c379a000000000000000000000000000000000000000000000000000000000815260040161041b906110ad565b60405180910390fd5b8260038181548110610439576104386110cd565b5b906000526020600020906005020160030160009054906101000a900460ff1615610498576040517f08c379a000000000000000000000000000000000000000000000000000000000815260040161048f90611148565b60405180910390fd5b6000600385815481106104ae576104ad6110cd565b5b9060005260206000209060050201905060018160040160008282546104d39190611197565b9250508190555060016002600087815260200190815260200160002060003373ffffffffffffffffffffffffffffffffffffffff1673ffffffffffffffffffffffffffffffffffffffff16815260200190815260200160002060006101000a81548160ff0219169083151502179055503373ffffffffffffffffffffffffffffffffffffffff16857f737f6609fa194738ed162051f994c6e9599a830846ea9d72d6501d79871e098160405160405180910390a360045481600401541061059e5761059d856108b2565b5b5050505050565b60016020528060005260406000206000915054906101000a900460ff1681565b60045481565b600381815481106105db57600080fd5b90600052602060002090600502016000915090508060000160009054906101000a900473ffffffffffffffffffffffffffffffffffffffff169080600101549080600201805461062a906111fa565b80601f0160208091040260200160405190810160405280929190818152602001828054610656906111fa565b80156106a35780601f10610678576101008083540402835291602001916106a3565b820191906000526020600020905b81548152906001019060200180831161068657829003601f168201915b5050505050908060030160009054906101000a900460ff16908060040154905085565b600160003373ffffffffffffffffffffffffffffffffffffffff1673ffffffffffffffffffffffffffffffffffffffff16815260200190815260200160002060009054906101000a900460ff16610752576040517f08c379a000000000000000000000000000000000000000000000000000000000815260040161074990610fd5565b60405180910390fd5b6000600380549050905060036040518060a001604052808673ffffffffffffffffffffffffffffffffffffffff1681526020018581526020018481526020016000151581526020016000815250908060018154018082558091505060019003906000526020600020906005020160009091909190915060008201518160000160006101000a81548173ffffffffffffffffffffffffffffffffffffffff021916908373ffffffffffffffffffffffffffffffffffffffff16021790555060208201518160010155604082015181600201908161082e91906113d7565b5060608201518160030160006101000a81548160ff0219169083151502179055506080820151816004015550508373ffffffffffffffffffffffffffffffffffffffff16817f453e07a951b5abb44cc647534a150065e3a308fec0dc01fda6ca43a4984f835b85856040516108a49291906114a9565b60405180910390a350505050565b8060038054905081106108fa576040517f08c379a00000000000000000000000000000000000000000000000000000000081526004016108f190611041565b60405180910390fd5b816003818154811061090f5761090e6110cd565b5b906000526020600020906005020160030160009054906101000a900460ff161561096e576040517f08c379a000000000000000000000000000000000000000000000000000000000815260040161096590611148565b60405180910390fd5b600060038481548110610984576109836110cd565b5b90600052602060002090600502019050600454816004015410156109dd576040517f08c379a00000000000000000000000000000000000000000000000000000000081526004016109d490611525565b60405180910390fd5b60018160030160006101000a81548160ff02191690831515021790555060008160000160009054906101000a900473ffffffffffffffffffffffffffffffffffffffff1673ffffffffffffffffffffffffffffffffffffffff16826001015483600201604051610a4d91906115d3565b60006040518083038185875af1925050503d8060008114610a8a576040519150601f19603f3d011682016040523d82523d6000602084013e610a8f565b606091505b5050905080610ad3576040517f08c379a0000000000000000000000000000000000000000000000000000000008152600401610aca90611636565b60405180910390fd5b3373ffffffffffffffffffffffffffffffffffffffff16857fefc13bdcf58f184ea7cae26b499fb33b539e01d0197cea456f3ada289b8cf19b60405160405180910390a35050505050565b6000819050919050565b610b3181610b1e565b82525050565b6000602082019050610b4c6000830184610b28565b92915050565b6000604051905090565b600080fd5b600080fd5b610b6f81610b1e565b8114610b7a57600080fd5b50565b600081359050610b8c81610b66565b92915050565b600060208284031215610ba857610ba7610b5c565b5b6000610bb684828501610b7d565b91505092915050565b600073ffffffffffffffffffffffffffffffffffffffff82169050919050565b6000610bea82610bbf565b9050919050565b610bfa81610bdf565b82525050565b6000602082019050610c156000830184610bf1565b92915050565b610c2481610bdf565b8114610c2f57600080fd5b50565b600081359050610c4181610c1b565b92915050565b60008060408385031215610c5e57610c5d610b5c565b5b6000610c6c85828601610b7d565b9250506020610c7d85828601610c32565b9150509250929050565b60008115159050919050565b610c9c81610c87565b82525050565b6000602082019050610cb76000830184610c93565b92915050565b600060208284031215610cd357610cd2610b5c565b5b6000610ce184828501610c32565b91505092915050565b600081519050919050565b600082825260208201905092915050565b60005b83811015610d24578082015181840152602081019050610d09565b60008484015250505050565b6000601f19601f8301169050919050565b6000610d4c82610cea565b610d568185610cf5565b9350610d66818560208601610d06565b610d6f81610d30565b840191505092915050565b600060a082019050610d8f6000830188610bf1565b610d9c6020830187610b28565b8181036040830152610dae8186610d41565b9050610dbd6060830185610c93565b610dca6080830184610b28565b9695505050505050565b600080fd5b600080fd5b7f4e487b7100000000000000000000000000000000000000000000000000000000600052604160045260246000fd5b610e1682610d30565b810181811067ffffffffffffffff82111715610e3557610e34610dde565b5b80604052505050565b6000610e48610b52565b9050610e548282610e0d565b919050565b600067ffffffffffffffff821115610e7457610e73610dde565b5b610e7d82610d30565b9050602081019050919050565b82818337600083830152505050565b6000610eac610ea784610e59565b610e3e565b905082815260208101848484011115610ec857610ec7610dd9565b5b610ed3848285610e8a565b509392505050565b600082601f830112610ef057610eef610dd4565b5b8135610f00848260208601610e99565b91505092915050565b600080600060608486031215610f2257610f21610b5c565b5b6000610f3086828701610c32565b9350506020610f4186828701610b7d565b925050604084013567ffffffffffffffff811115610f6257610f61610b61565b5b610f6e86828701610edb565b9150509250925092565b600082825260208201905092915050565b7f4e6f742061207369676e65720000000000000000000000000000000000000000600082015250565b6000610fbf600c83610f78565b9150610fca82610f89565b602082019050919050565b60006020820190508181036000830152610fee81610fb2565b9050919050565b7f5472616e73616374696f6e20646f6573206e6f74206578697374000000000000600082015250565b600061102b601a83610f78565b915061103682610ff5565b602082019050919050565b6000602082019050818103600083015261105a8161101e565b9050919050565b7f5472616e73616374696f6e20616c7265616479207369676e6564000000000000600082015250565b6000611097601a83610f78565b91506110a282611061565b602082019050919050565b600060208201905081810360008301526110c68161108a565b9050919050565b7f4e487b7100000000000000000000000000000000000000000000000000000000600052603260045260246000fd5b7f5472616e73616374696f6e20616c726561647920657865637574656400000000600082015250565b6000611132601c83610f78565b915061113d826110fc565b602082019050919050565b6000602082019050818103600083015261116181611125565b9050919050565b7f4e487b7100000000000000000000000000000000000000000000000000000000600052601160045260246000fd5b60006111a282610b1e565b91506111ad83610b1e565b92508282019050808211156111c5576111c4611168565b5b92915050565b7f4e487b7100000000000000000000000000000000000000000000000000000000600052602260045260246000fd5b6000600282049050600182168061121257607f821691505b602082108103611225576112246111cb565b5b50919050565b60008190508160005260206000209050919050565b60006020601f8301049050919050565b600082821b905092915050565b60006008830261128d7fffffffffffffffffffffffffffffffffffffffffffffffffffffffffffffffff82611250565b6112978683611250565b95508019841693508086168417925050509392505050565b6000819050919050565b60006112d46112cf6112ca84610b1e565b6112af565b610b1e565b9050919050565b6000819050919050565b6112ee836112b9565b6113026112fa826112db565b84845461125d565b825550505050565b600090565b61131761130a565b6113228184846112e5565b505050565b5b818110156113465761133b60008261130f565b600181019050611328565b5050565b601f82111561138b5761135c8161122b565b61136584611240565b81016020851015611374578190505b61138861138085611240565b830182611327565b50505b505050565b600082821c905092915050565b60006113ae60001984600802611390565b1980831691505092915050565b60006113c7838361139d565b9150826002028217905092915050565b6113e082610cea565b67ffffffffffffffff8111156113f9576113f8610dde565b5b61140382546111fa565b61140e82828561134a565b600060209050601f831160018114611441576000841561142f578287015190505b61143985826113bb565b8655506114a1565b601f19841661144f8661122b565b60005b8281101561147757848901518255600182019150602085019450602081019050611452565b868310156114945784890151611490601f89168261139d565b8355505b6001600288020188555050505b505050505050565b60006040820190506114be6000830185610b28565b81810360208301526114d08184610d41565b90509392505050565b7f4e6f7420656e6f756768207369676e6174757265730000000000000000000000600082015250565b600061150f601583610f78565b915061151a826114d9565b602082019050919050565b6000602082019050818103600083015261153e81611502565b9050919050565b600081905092915050565b6000815461155d816111fa565b6115678186611545565b945060018216600081146115825760018114611597576115ca565b60ff19831686528115158202860193506115ca565b6115a08561122b565b60005b838110156115c2578154818901526001820191506020810190506115a3565b838801955050505b50505092915050565b60006115df8284611550565b915081905092915050565b7f5472616e73616374696f6e206661696c65640000000000000000000000000000600082015250565b6000611620601283610f78565b915061162b826115ea565b602082019050919050565b6000602082019050818103600083015261164f81611613565b905091905056fea26469706673582212208f060b2e220a612a534d881124ecccd3dd02f43d4b89e8a96edba8feef17151564736f6c63430008180033",
    "linkReferences": {},
    "deployedLinkReferences": {}
}